:100000000C942A000C9447000C9447000C94470071
:100010000C9447000C9447000C9447000C94470044
:100020000C9447000C9447000C9447000C94470034
:100030000C9447000C9447000C9447000C94470024
:100040000C9447000C9447000C9447000C94470014
:100050000C94470011241FBECFE5D4E0DEBFCDBF16
:1000600010E0A0E6B0E0E8E7F1E002C005900D92F4
:10007000A036B107D9F710E0A0E6B0E001C01D92AC
:10008000A036B107E1F70E9493000C94BA000C94DB
:10009000000098E095BB82E082BB28EA31E6F901D6
:1000A0003197F1F715BA95BB84E082BBF90131971E
:1000B000F1F715BA95BB8CE082BBF9013197F1F7E6
:1000C00015BA95BB88E382BBC9010197F1F715BA50
:1000D000089598E095BB82BB88EA91E60197F1F715
:1000E00015BA08959AE095BB82BB84EC99E001971C
:1000F000F1F782E085BB0895CF93DF930EC0CE0168
:100100006AE070E00E94A600C0960E947200CE01D4
:100110006AE070E00E94A600CB01EC01009779F73D
:10012000DF91CF9108958FEF84BB81BB0E9449007E
:1001300088E085BB84E882BB88EA91E60197F1F705
:1001400015BA87EE91E00E947C000895AA1BBB1BA4
:1001500051E107C0AA1FBB1FA617B70710F0A61BC7
:10016000B70B881F991F5A95A9F780959095BC01E8
:08017000CD010895F894FFCFC2
:00000001FF
