:100000000C942A000C9447000C9447000C94470071
:100010000C9447000C9447000C9447000C94470044
:100020000C9447000C9447000C9447000C94470034
:100030000C9447000C9447000C9447000C94470024
:100040000C9447000C9447000C9447000C94470014
:100050000C94470011241FBECFE5D4E0DEBFCDBF16
:1000600010E0A0E6B0E0E6E6F1E002C005900D92F7
:10007000A036B107D9F710E0A0E6B0E001C01D92AC
:10008000A036B107E1F70E9449000C94B1000C942E
:100090000000DF93CF93CDB7DEB764970FB6F89427
:1000A000DEBF0FBECDBF2AE0DE011196FD01822F1B
:1000B00011928A95E9F788E090E09A83898384E039
:1000C00090E09C838B8382E090E09E838D8381E02F
:1000D00090E098878F83CE010B96FC0111922A95B0
:1000E000E9F780E190E09C878B8780E290E09E8733
:1000F0008D8780E490E0988B8F8780E890E09A8BE2
:10010000898B8FEF84BB20E030E049E150E06AEF5B
:1001100070E0F901EE0FFF1FEA0FFB1F808185BB26
:1001200080E197E2FA013197F1F70197D9F7F901E8
:10013000EE0FFF1FEA0FFB1F828585BB80E197E270
:10014000FA013197F1F70197D9F715BACB01019769
:10015000F1F72F5F3F4F25303105DCF220E030E032
:06016000D8CFF894FFCF98
:00000001FF
