:100000000C942A000C9447000C9447000C94470071
:100010000C9447000C9447000C9447000C94470044
:100020000C9447000C9447000C9447000C94470034
:100030000C9447000C9447000C9447000C94470024
:100040000C9447000C9447000C9447000C94470014
:100050000C94470011241FBECFE5D4E0DEBFCDBF16
:1000600010E0A0E6B0E0E2E2F2E002C005900D92FE
:10007000A836B107D9F710E0A8E6B0E001C01D929C
:10008000A836B107E1F70E94C5000C940F010C944B
:100090000000982F907F98BBC098C198C29A24EC1A
:1000A00039E0F9013197F1F7C2988295807F88BBDA
:1000B000C098C198C29AC9010197F1F7C2980895F2
:1000C00082E090E00E94490088E290E00E944900AE
:1000D0008CE090E00E94490086E090E00E94490098
:1000E00081E090E00E9449000895982F907F98BB8E
:1000F000C09AC198C29A24EC39E0F9013197F1F71E
:10010000C2988295807F88BBC09AC198C29AC90163
:100110000197F1F7C29808950F931F93CF93DF9340
:10012000EC0108EA11E611C0CE016AE070E00E941D
:10013000FB00C0960E947500C8010197F1F7CE013F
:100140006AE070E00E94FB00EB01209769F7DF9105
:10015000CF911F910F910895CF93DF93EC0102C0CF
:100160000E94750089918823D9F7DF91CF91089576
:1001700080E487BB82E48DB908958FB9779BFECF69
:100180000895779BFECF8FB108958FEF81BB0E94BA
:10019000600024EC39E0C9010197F1F780E487BBE6
:1001A00082E48DB9C9010197F1F783EC0E944900FF
:1001B00080E690E00E94AC0080E188BB80E197E29D
:1001C00029E130E0F9013197F1F70197D9F7C498A7
:1001D00084EC99E00197F1F785E08FB9779BFECF2A
:1001E00084EC99E00197F1F780E188BB88EA91E619
:1001F0000197F1F70895AA1BBB1B51E107C0AA1F85
:10020000BB1FA617B70710F0A61BB70B881F991FB7
:100210005A95A9F780959095BC01CD010895F89461
:02022000FFCF0E
:080222006C6F6B65736800004E
:00000001FF
