:100000000C942A000C9447000C9447000C94470071
:100010000C9447000C9447000C9447000C94470044
:100020000C9447000C9447000C9447000C94470034
:100030000C9447000C9447000C9447000C94470024
:100040000C9447000C9447000C9447000C94470014
:100050000C94470011241FBECFE5D4E0DEBFCDBF16
:1000600010E0A0E6B0E0E8EFF1E002C005900D92EC
:10007000A036B107D9F710E0A0E6B0E001C01D92AC
:10008000A036B107E1F70E94AB000C94FA000C9483
:100090000000982F907F946092BB24EC39E0F90126
:1000A0003197F1F792B3945092BBF9013197F1F780
:1000B0008295807F846082BBC9010197F1F782B38A
:1000C000845082BBC9010197F1F7089582E090E066
:1000D0000E9449008CE090E00E94490084E090E09A
:1000E0000E94490088E290E00E9449000895982FFC
:1000F000907F956092BB24EC39E0F9013197F1F7DC
:1001000092B3945092BBF9013197F1F78295807FB9
:10011000856082BBC9010197F1F782B3845082BB2D
:10012000C9010197F1F70895CF93DF930EC0CE0177
:100130006AE070E00E94E600C0960E947700CE015F
:100140006AE070E00E94E600CB01EC01009779F7CD
:10015000DF91CF910895FF920F931F93CF93DF9379
:1001600081E087BB8FEF81BB0E94660083EC0E9419
:1001700049008CE40E947700FF24F39403E015E823
:10018000F8BA802F8A95F1F718BA812F8A95F1F77E
:10019000C0E0D0E020E030E086B3823029F401C036
:1001A000219686B38230E1F32F5F3F4F80E92938F3
:1001B000380791F784E80E944900CE016AE570E0B3
:1001C0000E94E600CB010E949400DACFAA1BBB1B61
:1001D00051E107C0AA1FBB1FA617B70710F0A61B47
:1001E000B70B881F991F5A95A9F780959095BC0168
:0801F000CD010895F894FFCF42
:00000001FF
