:100000000C942A000C9447000C9447000C94470071
:100010000C9447000C9447000C9447000C94470044
:100020000C9447000C9447000C9447000C94470034
:100030000C9447000C9447000C9447000C94470024
:100040000C9447000C9447000C9447000C94470014
:100050000C94470011241FBECFE5D4E0DEBFCDBF16
:1000600010E0A0E6B0E0EAEAF1E002C005900D92EF
:10007000A437B107D9F710E0A4E7B0E001C01D92A2
:10008000A437B107E1F70E9449000C94D3000C9407
:1000900000002F923F924F925F926F927F928F92C9
:1000A0009F92AF92BF92CF92DF92EF92FF920F9307
:1000B0001F93DF93CF93CDB7DEB764970FB6F89455
:1000C000DEBF0FBECDBFDE011196E0E6F0E084E1B9
:1000D00001900D928150E1F78FEF84BB81BB20E04E
:1000E00030E08AE090E07E010894E11CF11C0AEF08
:1000F000602E712C14EC812E19E0912EB5E12B2E7F
:10010000312C2C0E3D1EA2E0AA2EFDE04F2E512CCC
:100110004C0E5D1E3FC080E182BB808185BBC30168
:100120000197F1F788E082BBD5BAC4010197F1F7D6
:1001300084E082BBB5BAC3010197F1F7A2BAC5BA90
:10014000C4010197F1F72230310519F08AE090E0FF
:1001500002C084E090E03296E215F305E1F61296D3
:10016000A415B50519F0DC90F701D5CF6F5F7F4F6F
:100170000E5F1F4F6817790734F4F801B080FA0159
:10018000C080D701F0CF2F5F3F4F2330310514F0EF
:1001900020E030E0870160E070E0A901440F551FC6
:0A01A0004E0D5F1DE7CFF894FFCF6E
:1001AA004000790024003000190012000200780093
:0401BA000000100031
:00000001FF
