:100000000C942A000C9447000C9447000C94470071
:100010000C9447000C9447000C9447000C94470044
:100020000C9447000C9447000C9447000C94470034
:100030000C9447000C9447000C9447000C94470024
:100040000C9447000C9447000C9447000C94470014
:100050000C94470011241FBECFE5D4E0DEBFCDBF16
:1000600010E0A0E6B0E0E8E2F2E002C005900D92F8
:10007000A836B107D9F710E0A8E6B0E001C01D929C
:10008000A836B107E1F70E94C7000C9412010C9446
:100090000000982F907F92BB90989198929A24ECB0
:1000A00039E0F9013197F1F792988295807F82BB10
:1000B00090989198929AC9010197F1F792980895B2
:1000C00082E090E00E94490088E290E00E944900AE
:1000D0008CE090E00E94490086E090E00E94490098
:1000E00081E090E00E9449000895982F907F92BB94
:1000F000909A9198929A24EC39E0F9013197F1F7AE
:1001000092988295807F82BB909A9198929AC90129
:100110000197F1F7929808950F931F93CF93DF9370
:10012000EC0108EA11E611C0CE016AE070E00E941D
:10013000FE00C0960E947500C8010197F1F7CE013C
:100140006AE070E00E94FE00EB01209769F7DF9102
:10015000CF911F910F910895CF93DF93EC0102C0CF
:100160000E94750089918823D9F7DF91CF91089576
:1001700080EB87BB82E58DB908958FB9779BFECF61
:1001800008958FEF8FB9779BFECF8FB1089580E2EE
:100190009EE429E130E0F9013197F1F70197D9F7B1
:1001A0008FEF81BB0E94600080E80E94490080E6DA
:1001B00090E00E94AC0080EB87BB82E58DB984ECB7
:1001C00099E00197F1F780E188BB80E197E229E1AE
:1001D00030E0F9013197F1F70197D9F7C49884EC31
:1001E00099E00197F1F78EE08FB9779BFECF88EA0F
:1001F00091E60197F1F780E188BB0895AA1BBB1B2C
:1002000051E107C0AA1FBB1FA617B70710F0A61B16
:10021000B70B881F991F5A95A9F780959095BC0137
:08022000CD010895F894FFCF11
:080228006C6F6B657368000048
:00000001FF
