:100000000C942A000C9447000C9447000C94470071
:100010000C9447000C9447000C9447000C94470044
:100020000C9447000C9447000C9447000C94470034
:100030000C9447000C9447000C9447000C94470024
:100040000C9447000C9447000C9447000C94470014
:100050000C94470011241FBECFE5D4E0DEBFCDBF16
:1000600010E0A0E6B0E0E8EEF0E002C005900D92EE
:10007000A036B107D9F710E0A0E6B0E001C01D92AC
:10008000A036B107E1F70E9449000C9472000C946D
:100090000000AFEF75E029E130E06AE059E046E0AA
:1000A000A4BB75BB8FEF9FEFF9013197F1F7019773
:1000B000D9F765BB8FEF9FEFF9013197F1F7019702
:1000C000D9F755BB8FEF9FEFF9013197F1F7019702
:1000D000D9F745BB8FEF9FEFF9013197F1F7019702
:0800E000D9F7DECFF894FFCF41
:00000001FF
