:100000000C942A000C9447000C9447000C94470071
:100010000C9447000C9447000C9447000C94470044
:100020000C9447000C9447000C9447000C94470034
:100030000C9447000C9447000C9447000C94470024
:100040000C9447000C9447000C9447000C94470014
:100050000C94470011241FBECFE5D4E0DEBFCDBF16
:1000600010E0A0E6B0E0E4ECF1E002C005900D92F3
:10007000A036B107D9F710E0A0E6B0E001C01D92AC
:10008000A036B107E1F70E94BD000C94E0000C948B
:1000900000003EEF2DEF9BEF35BB83B38E3E31F476
:1000A00083B38E3EE9F321E030E065C083B38E3D3B
:1000B00031F483B38E3DE9F324E030E05CC083B3D8
:1000C0008E3B31F483B38E3BE9F327E030E053C03D
:1000D00083B38E3731F483B38E37E9F32AE230E00D
:1000E0004AC025BB83B38D3E31F483B38D3EE9F323
:1000F00022E030E040C083B38D3D31F483B38D3DC9
:10010000E9F325E030E037C083B38D3B31F483B3AE
:100110008D3BE9F328E030E02EC083B38D3731F416
:1001200083B38D37E9F320E030E025C095BB83B37E
:100130008B3E31F483B38B3EE9F323E030E01BC008
:1001400083B38B3D31F483B38B3DE9F326E030E09C
:1001500012C083B38B3B31F483B38B3BE9F329E0CB
:1001600030E009C083B38B3709F096CF83B38B3768
:10017000E9F323E230E0C9010895EF92FF920F9373
:100180001F938FE084BB8FEF8ABB9AE1E92E86E153
:10019000F82E05E119E10E9449008430910511F41F
:1001A000EBBAF9CF8530910511F41BBBF4CF863043
:1001B000910511F40BBBEFCF089769F7FBBAEBCFB2
:0401C000F894FFCFE1
:00000001FF
