:100000000C942A000C9447000C9447000C94470071
:100010000C9447000C9447000C9447000C94470044
:100020000C9447000C9447000C9447000C94470034
:100030000C9447000C9447000C9447000C94470024
:100040000C9447000C9447000C9447000C94470014
:100050000C94470011241FBECFE5D4E0DEBFCDBF16
:1000600010E0A0E6B0E0E8EFF1E002C005900D92EC
:10007000A836B107D9F710E0A8E6B0E001C01D929C
:10008000A836B107E1F70E94C5000C94FA000C9461
:100090000000982F907F92BB90989198929A24ECB0
:1000A00039E0F9013197F1F792988295807F82BB10
:1000B00090989198929AC9010197F1F792980895B2
:1000C00082E090E00E94490088E290E00E944900AE
:1000D0008CE090E00E94490086E090E00E94490098
:1000E00081E090E00E9449000895982F907F92BB94
:1000F000909A9198929A24EC39E0F9013197F1F7AE
:1001000092988295807F82BB909A9198929AC90129
:100110000197F1F7929808950F931F93CF93DF9370
:10012000EC0108EA11E611C0CE016AE070E00E941D
:10013000E600C0960E947500C8010197F1F7CE0154
:100140006AE070E00E94E600EB01209769F7DF911A
:10015000CF911F910F910895CF93DF93EC0102C0CF
:100160000E94750089918823D9F7DF91CF91089576
:1001700080E487BB82E48DB908958FB9779BFECF69
:100180000895779BFECF8FB108951F938FEF84BBA7
:1001900081BB0E94600080E487BB82E48DB983EC60
:1001A0000E94490080E690E00E94AC00779BFECF61
:1001B0001FB185E80E94490084E00E944900812F18
:1001C00090E00E948C0015BB1F910895AA1BBB1BD9
:1001D00051E107C0AA1FBB1FA617B70710F0A61B47
:1001E000B70B881F991F5A95A9F780959095BC0168
:0801F000CD010895F894FFCF42
:0801F8006C6F6B657368000079
:00000001FF
