:100000000C942A000C9447000C9447000C94470071
:100010000C9447000C9447000C9447000C94470044
:100020000C9447000C9447000C9447000C94470034
:100030000C9447000C9447000C9447000C94470024
:100040000C9447000C9447000C9447000C94470014
:100050000C94470011241FBECFE5D4E0DEBFCDBF16
:1000600010E0A0E6B0E0E6E6F2E002C005900D92F6
:10007000A036B107D9F710E0A0E6B0E001C01D92AC
:10008000A036B107E1F70E94B6000C9431010C9440
:100090000000806487B987ED86B9349BFECF24B118
:1000A00035B1C9010895982F907F946092BB28EADA
:1000B00031E6F9013197F1F792B3945092BB8295F2
:1000C000807F846082BBC9010197F1F782B38450BD
:1000D00082BB089582E090E00E9453008CE090E0A3
:1000E0000E94530084E090E00E94530088E290E078
:1000F0000E9453000895982F907F956092BB28EA44
:1001000031E6F9013197F1F792B3945092BB8295A1
:10011000807F856082BBC9010197F1F782B384506B
:1001200082BB08950F931F93CF93DF93EC0109E1F6
:1001300010E015C0CE016AE070E00E940A01C0968E
:100140000E947B0080E197E2F8013197F1F7019777
:10015000D9F7CE016AE070E00E940A01EB01209716
:1001600049F7DF91CF911F910F910895BF92CF92E0
:10017000DF92EF92FF920F931F93CF93DF938FEF56
:1001800081BB1ABA0E946A0040E4B42E37EDC32E38
:1001900014E8C8EAD1E624E4D22E94E6E92E85E4F8
:1001A000F82E05E3B7B8C6B8349BFECF84B195B13D
:1001B00012BBFE013197F1F722B3245022BBD2BA11
:1001C000FE013197F1F722B3245022BB62E070E0C8
:1001D0000E941E01CB010E94920012BBCE0101972A
:1001E000F1F782B3845082BBE2BACE010197F1F7F6
:1001F00082B3845082BBF2BACE010197F1F782B389
:10020000845082BB02BBCE010197F1F782B38450C8
:1002100082BBC8CFAA1BBB1B51E107C0AA1FBB1FD3
:10022000A617B70710F0A61BB70B881F991F5A9582
:10023000A9F780959095BC01CD01089597FB092EF3
:1002400007260AD077FD04D0E5DF06D000201AF497
:10025000709561957F4F0895F6F7909581959F4F22
:060260000895F894FFCFA1
:00000001FF
