:100000000C942A000C9447000C9447000C94470071
:100010000C9447000C9447000C9447000C94470044
:100020000C9447000C9447000C9447000C94470034
:100030000C9447000C9447000C9447000C94470024
:100040000C9447000C9447000C9447000C94470014
:100050000C94470011241FBECFE5D4E0DEBFCDBF16
:1000600010E0A0E6B0E0EAECF0E002C005900D92EE
:10007000A036B107D9F710E0A0E6B0E001C01D92AC
:10008000A036B107E1F70E9449000C9463000C947C
:1000900000001ABA8FEF84BB30EC22E491E889B3F8
:1000A000833011F485BBFBCF89B3813011F495BB4C
:1000B000F6CF89B3823011F425BBF1CF89B3882301
:0A00C00071F735BBECCFF894FFCFC9
:00000001FF
