:100000000C942A000C9447000C9447000C94470071
:100010000C9447000C9447000C9447000C94470044
:100020000C9447000C9447000C9447000C94470034
:100030000C9447000C9447000C9447000C94470024
:100040000C9447000C9447000C9447000C94470014
:100050000C94470011241FBECFE5D4E0DEBFCDBF16
:1000600010E0A0E6B0E0E2E0F3E002C005900D92FF
:10007000A439B107D9F710E0A4E9B0E001C01D929E
:10008000A439B107E1F70E9498000C947F010C9409
:10009000000094E092BB28EA31E6F9013197F1F7CC
:1000A00082B3845082BB44E242BBF9013197F1F73D
:1000B00082B3845082BB92BBF9013197F1F782B3CE
:1000C000845082BB84EC82BBF9013197F1F782B393
:1000D000845082BB92BBF9013197F1F782B384500F
:1000E00082BB84E682BBF9013197F1F782B3845079
:1000F00082BB42BBF9013197F1F782B3845082BBD6
:1001000084E882BBF9013197F1F782B3845082BB56
:1001100092BBC9010197F1F782B3845082BB84E19D
:1001200082BBC9010197F1F782B3845082BB089565
:10013000EF92FF920F931F93DF93CF93CDB7DEB76C
:10014000E4970FB6F894DEBF0FBECDBFDE01119667
:10015000E8E8F0E08CE001900D928150E1F7DE01DB
:100160005996EAE7F0E08EE001900D928150E1F7B8
:10017000DE011D96EEE6F0E08CE001900D928150DC
:10018000E1F7DE019796E0E6F0E08EE001900D9257
:100190008150E1F78FEF81BB0E94490020E030E001
:1001A0007E010894E11CF11C48EA51E68E01035FD0
:1001B0001F4FDE015996BE01695D7F4FF701E20FC7
:1001C000F31F9081892F807F846082BBFA01319771
:1001D000F1F782B3845082BB9295907F946092BB7A
:1001E000CA010197F1F782B3845082BBF801E20F94
:1001F000F31F9081892F807F856082BBFA01319740
:10020000F1F782B3845082BB9295907F956092BB48
:10021000CA010197F1F782B3845082BBFD01E20F5E
:10022000F31F9081892F807F846082BBFA01319710
:10023000F1F782B3845082BB9295907F946092BB19
:10024000CA010197F1F782B3845082BBFB01E20F30
:10025000F31F9081892F807F856082BBFA013197DF
:10026000F1F782B3845082BB9295907F956092BBE8
:10027000CA010197F1F782B3845082BB2E5F3F4FD2
:100280002031310509F09ACFE4960FB6F894DEBF1D
:100290000FBECDBFCF91DF911F910F91FF90EF90D7
:1002A0000895982F907F946092BB28EA31E6F90177
:1002B0003197F1F792B3945092BB8295807F84601E
:1002C00082BBC9010197F1F782B3845082BB0895C4
:1002D000982F907F956092BB28EA31E6F90131971B
:1002E000F1F792B3945092BB8295807F856082BB78
:1002F000C9010197F1F782B3845082BB0895F89445
:02030000FFCF2D
:1003020050004100520049004800410052004C0098
:100312004F004B00450053004800C000C100C2001E
:10032200C300C400C500C6008000810082008300B3
:0403320084008500BE
:00000001FF
