:100000000C942A000C9447000C9447000C94470071
:100010000C9447000C9447000C9447000C94470044
:100020000C9447000C9447000C9447000C94470034
:100030000C9447000C9447000C9447000C94470024
:100040000C9447000C9447000C9447000C94470014
:100050000C94470011241FBECFE5D4E0DEBFCDBF16
:1000600010E0A0E6B0E0EEE8F2E002C005900D92EC
:10007000A439B107D9F710E0A4E9B0E001C01D929E
:10008000A439B107E1F70E94B0000C9445010C942B
:100090000000982F907F92BB90989198929A28EAAE
:1000A00031E6F9013197F1F792988295807F82BB12
:1000B00090989198929AC9010197F1F792980895B2
:1000C00082E090E00E9449008CE090E00E944900AC
:1000D00086E090E00E94490088E290E00E9449009A
:1000E00081E090E00E9449000895982F907F92BB94
:1000F000909A9198929A28EA31E6F9013197F1F7AE
:1001000092988295807F82BB909A9198929AC90129
:100110000197F1F7929808950F931F93CF93DF9370
:10012000EC0109E110E015C0CE016AE070E00E9428
:100130003101C0960E94750080E197E2F801319785
:10014000F1F70197D9F7CE016AE070E00E94310122
:10015000EB01209749F7DF91CF911F910F910895FF
:100160008F929F92AF92BF92CF92DF92EF92FF92C7
:100170000F931F93DF93CF93CDB7DEB7E4970FB6FE
:10018000F894DEBF0FBECDBFDE011196E8E8F0E0C7
:100190008CE001900D928150E1F7DE015996EAE77B
:1001A000F0E08EE001900D928150E1F7DE011D96A6
:1001B000EEE6F0E08CE001900D928150E1F7DE0177
:1001C0009796E0E6F0E08EE001900D928150E1F725
:1001D0008FEF81BB0E94600000E010E04E010894A8
:1001E000811C911C2DE0A22EB12CAC0EBD1E99E1FC
:1001F000C92ED12CCC0EDD1E87E2E82EF12CEC0EA0
:10020000FD1EF401E00FF11F80810E944900F501FD
:10021000E00FF11F80810E947500F601E00FF11FD1
:1002200080810E944900F701E00FF11F80810E9448
:1002300075000E5F1F4F0031110519F7E4960FB6D8
:10024000F894DEBF0FBECDBFCF91DF911F910F910C
:10025000FF90EF90DF90CF90BF90AF909F908F90E6
:100260000895AA1BBB1B51E107C0AA1FBB1FA617FD
:10027000B70710F0A61BB70B881F991F5A95A9F74F
:0E02800080959095BC01CD010895F894FFCFB4
:10028E0050004100520049004800410052004C000D
:10029E004F004B00450053004800C000C100C20093
:1002AE00C300C400C500C600800081008200830028
:0402BE008400850033
:00000001FF
