:100000000C942A000C9447000C9447000C94470071
:100010000C9447000C9447000C9447000C94470044
:100020000C9447000C9447000C9447000C94470034
:100030000C9447000C9447000C9447000C94470024
:100040000C9447000C9447000C9447000C94470014
:100050000C94470011241FBECFE5D4E0DEBFCDBF16
:1000600010E0A0E6B0E0EEE2F2E002C005900D92F2
:10007000A036B107D9F710E0A0E6B0E001C01D92AC
:10008000A036B107E1F70E9449000C9415010C94C9
:100090000000DF93CF93CDB7DEB7C055D0400FB689
:1000A000F894DEBF0FBECDBF8FEF84BBDE0111968B
:1000B00080E5FD0111928A95E9F781E090E09A834D
:1000C000898382E090E09C838B8384E090E09E8330
:1000D0008D8388E090E098878F8380E190E09A8715
:1000E000898780E290E09C878B8780E490E09E8700
:1000F0008D8780E890E0988B8F8781E890E09A8BDD
:10010000898B82E890E09C8B8B8B84E890E09E8BBF
:100110008D8B88E890E0988F8F8B80E990E09A8FA4
:10012000898F80EA90E09C8F8B8F80EC90E09E8F8F
:100130008D8F81EC90E098A38F8F82EC90E09AA352
:1001400089A384EC90E09CA38BA388EC90E09EA311
:100150008DA380ED90E098A78FA380EE90E09AA702
:1001600089A781EE90E09CA78BA782EE90E09EA7E6
:100170008DA784EE90E098AB8FA788EE90E09AABC5
:1001800089AB80EF90E09CAB8BAB81EF90E09EABB6
:100190008DAB82EF90E098AF8FAB84EF90E09AAF99
:1001A00089AF88EF90E09CAF8BAF89EF90E09EAF76
:1001B0008DAFFE01FF968AEF90E0918380838CEFF4
:1001C00090E0FE01EF5BFF4F918380838DEF90E025
:1001D000FE01ED5BFF4F918380838EEF90E0FE0187
:1001E000EB5BFF4F918380838FEF90E0FE01E95B33
:1001F000FF4F9183808320E030E049E150E0F90136
:10020000EE0FFF1FEA0FFB1F808185BB80EA9FE096
:10021000FA013197F1F70197D9F72F5F3F4F263257
:0E02200031056CF320E030E0EACFF894FFCF18
:00000001FF
