:100000000C942A000C9447000C9447000C94470071
:100010000C9447000C9447000C9447000C94470044
:100020000C9447000C9447000C9447000C94470034
:100030000C9447000C9447000C9447000C94470024
:100040000C9447000C9447000C9447000C94470014
:100050000C94470011241FBECFE5D4E0DEBFCDBF16
:1000600010E0A0E6B0E0E8E4F2E002C005900D92F6
:10007000A036B107D9F710E0A0E6B0E001C01D92AC
:10008000A036B107E1F70E94D6000C9422010C942F
:100090000000982F907F95BBA898A998AA9A28EA63
:1000A00031E6F9013197F1F7AA988295807F85BBF7
:1000B000A898A998AA9AC9010197F1F7AA98089552
:1000C00082E090E00E9449008CE090E00E944900AC
:1000D00086E090E00E94490088E290E00E9449009A
:1000E00081E090E00E9449000895982F907F95BB91
:1000F000A89AA998AA9A28EA31E6F9013197F1F766
:10010000AA988295807F85BBA89AA998AA9AC901C6
:100110000197F1F7AA9808950F931F93CF93DF9358
:10012000EC0109E110E015C0CE016AE070E00E9428
:100130000E01C0960E94750080E197E2F8013197A8
:10014000F1F70197D9F7CE016AE070E00E940E0145
:10015000EB01209749F7DF91CF911F910F910895FF
:100160000F931F93CF93DF938C01C0E0D0E0F80191
:10017000EC0FFD1F80810E9475002196CC30D105C7
:10018000B1F7DF91CF911F910F91089510BC83E3D8
:1001900089B988E18AB986E880BD08955D9BFECF64
:1001A0008CB908955F9BFECF8CB108950F931F9378
:1001B000DF93CF93CDB7DEB72D970FB6F894DEBFA0
:1001C0000FBECDBF8FEF84BB0E94600010BC83E3E5
:1001D00089B988E18AB986E880BD85EC0E9449002A
:1001E0008CE40E94750020E030E08E010F5F1F4F0D
:1001F00009C05F9BFECF8CB1F801E20FF31F808333
:100200002F5F3F4F2C303105A4F380E80E94490056
:10021000C8010E94B00020E030E0F4CFAA1BBB1B55
:1002200051E107C0AA1FBB1FA617B70710F0A61BF6
:10023000B70B881F991F5A95A9F780959095BC0117
:08024000CD010895F894FFCFF1
:00000001FF
