:100000000C942A000C9447000C9447000C94470071
:100010000C9447000C9447000C9447000C94470044
:100020000C9447000C9447000C9447000C94470034
:100030000C9447000C9447000C9447000C94470024
:100040000C9447000C9447000C9447000C94470014
:100050000C94470011241FBECFE5D4E0DEBFCDBF16
:1000600010E0A0E6B0E0E4E5F1E002C005900D92FA
:10007000A036B107D9F710E0A0E6B0E001C01D92AC
:10008000A036B107E1F70E9449000C94A8000C9437
:100090000000DF93CF93CDB7DEB7A0970FB6F894EB
:1000A000DEBF0FBECDBF20E1DE011196FD01822F24
:1000B00011928A95E9F781E090E09A83898382E042
:1000C00090E09C838B8384E090E09E838D8388E026
:1000D00090E098878F83CE014196FC0111922A957A
:1000E000E9F780E890E09A8B898B80E490E09C8B24
:1000F0008B8B80E290E09E8B8D8B80E190E0988FDF
:100100008F8B8FEF84BB20E030E068EA71E64AEF26
:1001100050E0F901EE0FFF1FEA0FFB1F808185BB46
:10012000CB010197F1F715BACA010197F1F7808960
:1001300085BBCB010197F1F715BACA010197F1F719
:100140002F5F3F4F2830310524F320E030E0E1CF2E
:04015000F894FFCF51
:00000001FF
