:100000000C942A000C9447000C9447000C94470071
:100010000C9447000C9447000C9447000C94470044
:100020000C9447000C9447000C9447000C94470034
:100030000C9447000C9447000C9447000C94470024
:100040000C9447000C9447000C9447000C94470014
:100050000C94470011241FBECFE5D4E0DEBFCDBF16
:1000600010E0A0E6B0E0EEE5F1E002C005900D92F0
:10007000A036B107D9F710E0A0E6B0E001C01D92AC
:10008000A036B107E1F70E9449000C94AD000C9432
:1000900000000F931F93DF93CF93CDB7DEB7629726
:1000A0000FB6F894DEBF0FBECDBFFE01319682E1E0
:1000B000DF011D928A95E9F781E090E09A838983B8
:1000C00082E090E09C838B8384E090E09E838D832C
:1000D00088E090E098878F8380E190E09A87898715
:1000E00080E290E09C878B8780E490E09E878D87FC
:1000F00080E890E0988B8F878FEF84BB20E030E022
:100100008F0148EA51E6DE011F96BE016150704042
:1001100010C0F901EE0FFF1FE00FF11F808185BBBA
:10012000CA010197F1F715BACA010197F1F72F5FDC
:100130003F4F283031056CF3FD01808185BBCA013A
:100140000197F1F715BACA010197F1F73297E6174F
:0E015000F70799F720E030E0ECCFF894FFCFEE
:00000001FF
