:100000000C942A000C9447000C9447000C94470071
:100010000C9447000C9447000C9447000C94470044
:100020000C9447000C9447000C9447000C94470034
:100030000C9447000C9447000C9447000C94470024
:100040000C9447000C9447000C9447000C94470014
:100050000C94470011241FBECFE5D4E0DEBFCDBF16
:1000600010E0A0E6B0E0E8E3F3E002C005900D92F6
:10007000AA39B107D9F710E0AAE9B0E001C01D9292
:10008000AA39B107E1F70E94CC000C949A010C94B4
:100090000000982F907F95BBA898A998AA9A28EA63
:1000A00031E6F9013197F1F7AA988295807F85BBF7
:1000B000A898A998AA9AC9010197F1F7AA98089552
:1000C00082E090E00E9449008CE090E00E944900AC
:1000D00086E090E00E94490088E290E00E9449009A
:1000E00081E090E00E9449000895982F907F95BB91
:1000F000A89AA998AA9A28EA31E6F9013197F1F766
:10010000AA988295807F85BBA89AA998AA9AC901C6
:100110000197F1F7AA9808950F931F93CF93DF9358
:10012000EC0109E110E015C0CE016AE070E00E9428
:100130008601C0960E94750080E197E2F801319730
:10014000F1F70197D9F7CE016AE070E00E948601CD
:10015000EB01209749F7DF91CF911F910F910895FF
:10016000CF93DF93EC0102C00E9475008991882330
:10017000D9F7DF91CF91089510BC83E389B988E165
:100180008AB986E880BD08955D9BFECF8CB908953D
:100190005F9BFECF8CB10895AF92BF92CF92DF925A
:1001A000EF92FF920F931F93DF93CF93CDB7DEB7FC
:1001B000A4970FB6F894DEBF0FBECDBFDE011D962B
:1001C000EEE8F0E08CE001900D928150E1F7DE0165
:1001D0005996E2E8F0E08CE001900D928150E1F751
:1001E0008FEF84BB0E94600010BC83E389B988E173
:1001F0008AB986E880BD80E80E94490080E690E0E8
:100200000E94B0008FEF9FEF29E130E0F9013197B4
:10021000F1F70197D9F781E00E94490020E030E032
:100220008E010F5F1F4F4DE0A42EB12CAC0EBD1EF2
:1002300099E1C92ED12CCC0EDD1E88EAE82E81E68C
:10024000F82E09C05F9BFECF8CB1F801E20FF31FBF
:1002500080832F5F3F4F2C303105A4F320E030E046
:1002600060E070E0F801E20FF31FD501A20FB31FA9
:1002700090818C91981711F46F5F7F4F2F5F3F4FE4
:100280002C30310579F720E030E040E050E0F80113
:10029000E20FF31FD601A20FB31F90818C91981724
:1002A00011F44F5F5F4F2F5F3F4F2C30310579F7CF
:1002B0006C30710519F04C305105C1F482E80E9490
:1002C000490080E790E00E94B000A4960FB6F89431
:1002D000DEBF0FBECDBFCF91DF911F910F91FF9079
:1002E000EF90DF90CF90BF90AF90089582E80E948A
:1002F000490088E790E00E94B000C7010197F1F73C
:1003000081E00E94490020E030E0A5CFAA1BBB1B82
:1003100051E107C0AA1FBB1FA617B70710F0A61B05
:10032000B70B881F991F5A95A9F780959095BC0126
:08033000CD010895F894FFCF00
:10033800537769706520796F757220636172640004
:1003480057656C636F6D65005472792061676169E8
:100358006E00304430303736434341383146313807
:0A0368003030383932334232303081
:00000001FF
