:100000000C942A000C9447000C9447000C94470071
:100010000C9447000C9447000C9447000C94470044
:100020000C9447000C9447000C9447000C94470034
:100030000C9447000C9447000C9447000C94470024
:100040000C9447000C9447000C9447000C94470014
:100050000C94470011241FBECFE5D4E0DEBFCDBF16
:1000600010E0A0E6B0E0E0EFF1E002C005900D92F4
:10007000A036B107D9F710E0A0E6B0E001C01D92AC
:10008000A036B107E1F70E94C0000C94F6000C9472
:100090000000982F907F9BBBD898D998DA9A28EACD
:1000A00031E6F9013197F1F7DA988295807F8BBBC1
:1000B000D898D998DA9AC9010197F1F7DA98089592
:1000C00082E090E00E9449008CE090E00E944900AC
:1000D00086E090E00E94490088E290E00E9449009A
:1000E00081E090E00E9449000895982F907F9BBB8B
:1000F000D89AD998DA9A28EA31E6F9013197F1F7D6
:10010000DA988295807F8BBBD89AD998DA9AC90100
:100110000197F1F7DA9808950F931F93CF93DF9328
:10012000EC0109E110E015C0CE016AE070E00E9428
:10013000E200C0960E94750080E197E2F8013197D5
:10014000F1F70197D9F7CE016AE070E00E94E20072
:10015000EB01209749F7DF91CF911F910F910895FF
:1001600010BC83E389B988E18AB986E880BD089527
:100170005D9BFECF8CB908955F9BFECF8CB1089537
:1001800082E081BB8FEF8ABB0E94600010BC83E3DA
:1001900089B988E18AB986E880BD85E80E9449006E
:1001A0008CE40E9475005F9BFECF8CB1883629F4E9
:1001B00085EC0E9449008FE4F4CF87EC0E9449004F
:1001C0008BE4EFCFAA1BBB1B51E107C0AA1FBB1FCB
:1001D000A617B70710F0A61BB70B881F991F5A95D3
:1001E000A9F780959095BC01CD010895F894FFCFB3
:00000001FF
